{
  "_format": "hh-sol-artifact-1",
  "contractName": "SimpleContract",
  "sourceName": "contracts/SimpleContract.sol",
  "abi": [
    {
      "inputs": [],
      "stateMutability": "nonpayable",
      "type": "constructor"
    },
    {
      "inputs": [],
      "name": "SimpleContract__NotTheOwner",
      "type": "error"
    },
    {
      "inputs": [],
      "name": "SimpleContract__TransactionFail",
      "type": "error"
    },
    {
      "anonymous": false,
      "inputs": [
        {
          "indexed": true,
          "internalType": "uint256",
          "name": "amount",
          "type": "uint256"
        },
        {
          "indexed": false,
          "internalType": "bytes",
          "name": "data",
          "type": "bytes"
        }
      ],
      "name": "SimpleContractLog",
      "type": "event"
    },
    {
      "inputs": [],
      "name": "getBalance",
      "outputs": [
        {
          "internalType": "uint256",
          "name": "",
          "type": "uint256"
        }
      ],
      "stateMutability": "view",
      "type": "function"
    },
    {
      "inputs": [],
      "name": "getOwner",
      "outputs": [
        {
          "internalType": "address",
          "name": "",
          "type": "address"
        }
      ],
      "stateMutability": "view",
      "type": "function"
    },
    {
      "inputs": [
        {
          "internalType": "address",
          "name": "_to",
          "type": "address"
        },
        {
          "internalType": "uint256",
          "name": "amount",
          "type": "uint256"
        }
      ],
      "name": "transferFundsUsingCall",
      "outputs": [],
      "stateMutability": "nonpayable",
      "type": "function"
    },
    {
      "inputs": [],
      "name": "withdraw",
      "outputs": [],
      "stateMutability": "payable",
      "type": "function"
    },
    {
      "stateMutability": "payable",
      "type": "receive"
    }
  ],
  "bytecode": "0x60a060405234801561001057600080fd5b503373ffffffffffffffffffffffffffffffffffffffff1660808173ffffffffffffffffffffffffffffffffffffffff16815250506080516107e261006d6000396000818160e201528181610169015261023601526107e26000f3fe6080604052600436106100435760003560e01c806312065fe01461004f5780633ccfd60b1461007a578063893d20e814610084578063afe1e7fe146100af5761004a565b3661004a57005b600080fd5b34801561005b57600080fd5b506100646100d8565b604051610071919061048f565b60405180910390f35b6100826100e0565b005b34801561009057600080fd5b50610099610232565b6040516100a691906104eb565b60405180910390f35b3480156100bb57600080fd5b506100d660048036038101906100d19190610563565b61025a565b005b600047905090565b7f000000000000000000000000000000000000000000000000000000000000000073ffffffffffffffffffffffffffffffffffffffff163373ffffffffffffffffffffffffffffffffffffffff1614610165576040517fb76550fc00000000000000000000000000000000000000000000000000000000815260040160405180910390fd5b60007f000000000000000000000000000000000000000000000000000000000000000073ffffffffffffffffffffffffffffffffffffffff166101a66100d8565b6040516101b2906105d4565b60006040518083038185875af1925050503d80600081146101ef576040519150601f19603f3d011682016040523d82523d6000602084013e6101f4565b606091505b505090508061022f576040517fdb708dfd00000000000000000000000000000000000000000000000000000000815260040160405180910390fd5b50565b60007f0000000000000000000000000000000000000000000000000000000000000000905090565b600073ffffffffffffffffffffffffffffffffffffffff168273ffffffffffffffffffffffffffffffffffffffff1614156102ca576040517f08c379a00000000000000000000000000000000000000000000000000000000081526004016102c190610646565b60405180910390fd5b6102d26100d8565b811115610314576040517f08c379a000000000000000000000000000000000000000000000000000000000815260040161030b906106b2565b60405180910390fd5b60008273ffffffffffffffffffffffffffffffffffffffff16826040516024016040516020818303038152906040527f1dcc85ae000000000000000000000000000000000000000000000000000000007bffffffffffffffffffffffffffffffffffffffffffffffffffffffff19166020820180517bffffffffffffffffffffffffffffffffffffffffffffffffffffffff83818316178352505050506040516103be9190610741565b60006040518083038185875af1925050503d80600081146103fb576040519150601f19603f3d011682016040523d82523d6000602084013e610400565b606091505b505090508061043b576040517fdb708dfd00000000000000000000000000000000000000000000000000000000815260040160405180910390fd5b817fb8262e8c1339a2297ffbdf8eddb1f56e0f42cd68d5b09247e6b9d98079bc7beb6040516104699061078c565b60405180910390a2505050565b6000819050919050565b61048981610476565b82525050565b60006020820190506104a46000830184610480565b92915050565b600073ffffffffffffffffffffffffffffffffffffffff82169050919050565b60006104d5826104aa565b9050919050565b6104e5816104ca565b82525050565b600060208201905061050060008301846104dc565b92915050565b600080fd5b610514816104ca565b811461051f57600080fd5b50565b6000813590506105318161050b565b92915050565b61054081610476565b811461054b57600080fd5b50565b60008135905061055d81610537565b92915050565b6000806040838503121561057a57610579610506565b5b600061058885828601610522565b92505060206105998582860161054e565b9150509250929050565b600081905092915050565b50565b60006105be6000836105a3565b91506105c9826105ae565b600082019050919050565b60006105df826105b1565b9150819050919050565b600082825260208201905092915050565b7f496e76616c696420526563656963657220416464726573730000000000000000600082015250565b60006106306018836105e9565b915061063b826105fa565b602082019050919050565b6000602082019050818103600083015261065f81610623565b9050919050565b7f496e73756666696369656e742046756e64730000000000000000000000000000600082015250565b600061069c6012836105e9565b91506106a782610666565b602082019050919050565b600060208201905081810360008301526106cb8161068f565b9050919050565b600081519050919050565b60005b838110156106fb5780820151818401526020810190506106e0565b8381111561070a576000848401525b50505050565b600061071b826106d2565b61072581856105a3565b93506107358185602086016106dd565b80840191505092915050565b600061074d8284610710565b915081905092915050565b600082825260208201905092915050565b6000610776600083610758565b9150610781826105ae565b600082019050919050565b600060208201905081810360008301526107a581610769565b905091905056fea264697066735822122075418283d5be78a971ae6b0d0647eeec718a65898807dfa649c6dfc264b21ffe64736f6c63430008090033",
  "linkReferences": {},
  "deployedLinkReferences": {}
}